:10000000020480AE07C293C297D2935306FEAF0696
:10001000120773AF05120773C2932202050C754DC8
:10002000FFE5216401704185424E754C07AF4C7E5F
:1000300000C3EF94017480948050030201DAEF64EE
:1000400007600CE54E7008743A2FF8760A800DE5CB
:100050004E75F00A84743A254CF8A6F0E54E75F01A
:100060000A84F54E154C80C5E54364016003020126
:1000700044E53564017077853451853350F54FF58B
:100080004E753A0C753B0A754C07AF4C7E00C3EFBA
:10009000940274809480500302015DEF640760173E
:1000A000AF51AE50AD4FAC4EEC4D4E4F7009743A5F
:1000B000254CF8760A801AE47B0AFAF9F8AF51AEBB
:1000C00050AD4FAC4E120621AF03743A254CF8A642
:1000D00007AF51AE50AD4FAC4EE47B0AFAF9F812BF
:1000E00006218F518E508D4F8C4E154C809CE535DE
:1000F00064027069E52464017005754EC88003854B
:10010000224E753A0B754C07AF4C7E00C3EF94013D
:10011000748094804047EF940574809480500CE57F
:100120004E7008743A2FF8760A800DE54E75F00A85
:1001300084743A254CF8A6F0E54E75F00A84F54E25
:10014000154C80C4E4F54CC3E54C9408748094804D
:10015000500B743A254CF8760A054C80EAE5326477
:10016000017070754DFFAF35FEEF64027005534DA1
:10017000FE8009EF64014E7003534DFDAF227E00F7
:10018000C3EF949674809480400CEF94FA7480943A
:10019000805003534DFBC3EF945EEE648094814026
:1001A00003534DFBC3E53494E8E5339403400DE578
:1001B000349488E53394135003534DF7C3E53494D6
:1001C00010E53394274003534DF7E5246402700390
:1001D000534DEFAD4D7F0412085B22E88FF0A4CCA5
:1001E0008BF0A42CFCE98EF0A42CFC8AF0EDA42C5E
:1001F000FCEA8EF0A4CDA8F08BF0A42DCC3825F02D
:10020000FDE98FF0A42CCD35F0FCEB8EF0A4FEA917
:10021000F0EB8FF0A4CFC5F02ECD39FEE43CFCEA24
:10022000A42DCE35F0FDE43CFC22EB9FF5F0EA9ED8
:1002300042F0E99D42F0EC6480C864809845F02269
:1002400075F008758200EF2FFFEE33FECD33CDCC75
:1002500033CCC58233C5829BED9AEC99E5829840F8
:100260000CF582EE9BFEED9AFDEC99FC0FD5F0D6D5
:10027000E4CEFBE4CDFAE4CCF9A88222B800C1B9FF
:100280000059BA002DEC8BF084CFCECDFCE5F0CB3D
:10029000F97818EF2FFFEE33FEED33FDEC33FCEB76
:1002A00033FB10D703994004EB99FB0FD8E5E4F931
:1002B000FA227818EF2FFFEE33FEED33FDEC33FC1E
:1002C000C933C910D7059BE99A4007EC9BFCE99A12
:1002D000F90FD8E0E4C9FAE4CCFB2275F010EF2F57
:1002E000FFEE33FEED33FDCC33CCC833C810D70757
:1002F0009BEC9AE899400AED9BFDEC9AFCE899F892
:100300000FD5F0DAE4CDFBE4CCFAE4C8F922120808
:100310003512087FD2AFD2AB43B00F7DFF7F0412FE
:10032000085BE4F52185394B85384A8537498536A0
:1003300048E47B02FAF9F8AF4BAE4AAD49AC48123B
:100340000621AC00AD01AE02AF03EC4D4E4F70077D
:10035000C2AF1208ABD2AFE47B0AFAF9F8AF4BAEEA
:100360004AAD49AC48120621AC00AD01AE02AF0364
:10037000EC4D4E4F7007C2AF12058BD2AFE47BE855
:100380007A03F9F8AF4BAE4AAD49AC48120621AC3E
:1003900000AD01AE02AF03EC4D4E4F7007C2AF127D
:1003A00007FDD2AFE47B02FAF9F8AF4BAE4AAD4994
:1003B000AC48120621AC00AD01AE02AF03EC4D4ECD
:1003C0004F7007C2AF12001ED2AFAF39AE38AD3793
:1003D000AC36AB4BAA4AA949A848C312022A60030B
:1003E00002032580E520B005E4F50B8003750B01C1
:1003F00020B105E4F50A8003750A0120B205E4F591
:1004000009800375090120B305E4F5088003750828
:1004100001E4FFEFC3940474809480501E74102F85
:10042000F8E6FE74082FF8E66E600774142FF806DD
:10043000800674142FF8E4F60F80D8E4FFEFC3941D
:100440000474809480503874142FF8E6C3940574B3
:10045000809480402774102FF8E6FE74082FF8E689
:100460006E601974102FF8C374019EF674102FF883
:10047000E67009740C2FF876017542980F80BE2241
:10048000787FE4F6D8FD7581510204C702030EE4BB
:1004900093A3F8E493A34003F68001F208DFF4800D
:1004A00029E493A3F85407240CC8C333C4540F445D
:1004B00020C8834004F456800146F6DFE4800B0137
:1004C00002040810204080900665E47E019360BC21
:1004D000A3FF543F30E509541FFEE493A360010ECF
:1004E000CF54C025E060A840B8E493A3FAE493A3F6
:1004F000F8E493A3C8C582C8CAC583CAF0A3C8C517
:1005000082C8CAC583CADFE9DEE780BEC0E0C0D0CA
:1005100075D000C000C001C002C005C007E4FAF9F0
:10052000F8E5392401F539EA3538F538E93537F594
:1005300037E83536F536AD2F7F0712085BAF23A8B5
:10054000077401088002C333D8FCFD7F0612085BE4
:10055000743A2523F8E62425F8E6FDE523640570C2
:100560000FE53564027009E5436401700353057FAC
:100570007F0712085BE523045407F523D007D00555
:10058000D002D001D000D0D0D0E0321208487F9005
:100590001206A61208197F431206A612081912089D
:1005A000487F911206A61208191206FDE48F4FF536
:1005B0004EF54DF54CFF1207DE12089FE47FF47EE6
:1005C00001FDFCAB4FAA4EA94DA84C1201DBE4FB88
:1005D0007A01F9F81206218F2222E50C6401700CD1
:1005E000F50CC374039535F535754205E50D6401C9
:1005F000700CF50DC374039524F524754206E50EC1
:100600006401700BF50EC3049532F532754207E5AF
:100610000F6401700BF50FC3049543F54375420851
:1006200022C2D5E830E70FB2D5E4C39BFBE49AFAC7
:10063000E499F9E498F8EC30E717B2D512065712AE
:10064000027CE4C39BFBE49AFAE499F9E498F8800D
:100650000312027C30D50DE4C39FFFE49EFEE49DAF
:10066000FDE49CFC22014297083A010203040506BE
:1006700007080D25C0F9A4B0999282F88090FFC1B7
:100680008E013502012401013201014301040801F8
:10069000010101041400000000040C00000000042B
:1006A000100101010100E4FEEEC3940874809480FF
:1006B000501FEF30E704D2A18002C2A10000000069
:1006C00000D2A0EF25E0FF0000000000C2A00E80D5
:1006D000D722E52464017004F5188003E4F51812AC
:1006E00008487F901206A61208197F431206A61228
:1006F0000819AF181206A612081902089FE4FEEEA8
:10070000C3940874809480501BD2A00000000000A5
:10071000EF25E0FF30A103430701C2A00000000065
:10072000000E80DB22C200D2947F0C7E001208945F
:10073000C2947F507E00120894D2947F0A7E0012E9
:100740000894A2949200120890A20022AD07E4FB44
:10075000EBC39408748094805012C294ED13929469
:10076000120890D294EDC313FD0B80E47F057E0048
:10077000020894C297E4FEEEC394087480948050FB
:1007800015EF30E004D2A38002C2A3D297C297EF44
:10079000C313FF0E80E122E4FFFEEEC394087480D1
:1007A00094805016EFC313FF30A3054307808003E6
:1007B00053077FD297C2970E80E022E4FBEBC394ED
:1007C00008748094805014C294EDC313FDD2943009
:1007D00094034305801208900B80E2AF0522EF607E
:1007E00004C2A18002D2A10000000000D2A000003B
:1007F000000000C2A0D2A1000000000022854644F3
:10080000854745AF8CEFAD8AF546EDF547C3954575
:10081000F534E5469544F53322D2A10000000000EE
:10082000D2A0000000000030A107C2A012089FC3A0
:1008300022C2A0D322438E805389F0438904E4F579
:100840008AF58CC28DD28C22D2A1D2A000000000E9
:1008500000C2A10000000000C2A0228D8000EFC4F1
:100860003354E0441FF5A00053A01F0022C293C2DE
:1008700097D293430701120773120797C29322433B
:100880008E4053890F758B20758DD1C28FD28E22E9
:100890007F057E00EF1FAC0670011E4C70F622C271
:1008A000A1D2A00000000000D2A1221203E502059F
:0108B000DA6D
:00000001FF
