:10000000020483AE07C293C297D2935306FEAF0693
:100010001207B8AF051207B8C2932202050F754D3B
:10002000FFE5216401704185424E754C07AF4C7E5F
:1000300000C3EF94017480948050030201DAEF64EE
:1000400007600CE54E7008743A2FF8760A800DE5CB
:100050004E75F00A84743A254CF8A6F0E54E75F01A
:100060000A84F54E154C80C5E54364016003020126
:1000700044E53564017077853451853350F54FF58B
:100080004E753A0C753B0A754C07AF4C7E00C3EFBA
:10009000940274809480500302015DEF640760173E
:1000A000AF51AE50AD4FAC4EEC4D4E4F7009743A5F
:1000B000254CF8760A801AE47B0AFAF9F8AF51AEBB
:1000C00050AD4FAC4E120691AF03743A254CF8A6D2
:1000D00007AF51AE50AD4FAC4EE47B0AFAF9F812BF
:1000E00006918F518E508D4F8C4E154C809CE5356E
:1000F00064027069E52464017005754EC88003854B
:10010000224E753A0B754C07AF4C7E00C3EF94013D
:10011000748094804047EF940574809480500CE57F
:100120004E7008743A2FF8760A800DE54E75F00A85
:1001300084743A254CF8A6F0E54E75F00A84F54E25
:10014000154C80C4E4F54CC3E54C9408748094804D
:10015000500B743A254CF8760A054C80EAE5326477
:10016000017070754DFFAF35FEEF64027005534DA1
:10017000FE8009EF64014E7003534DFDAF227E00F7
:10018000C3EF949674809480400CEF94FA7480943A
:10019000805003534DFBC3EF945EEE648094814026
:1001A00003534DFBC3E53494E8E5339403400DE578
:1001B000349488E53394135003534DF7C3E53494D6
:1001C00010E53394274003534DF7E5246402700390
:1001D000534DEFAD4D7F041208A022E88FF0A4CC60
:1001E0008BF0A42CFCE98EF0A42CFC8AF0EDA42C5E
:1001F000FCEA8EF0A4CDA8F08BF0A42DCC3825F02D
:10020000FDE98FF0A42CCD35F0FCEB8EF0A4FEA917
:10021000F0EB8FF0A4CFC5F02ECD39FEE43CFCEA24
:10022000A42DCE35F0FDE43CFC22EB9FF5F0EA9ED8
:1002300042F0E99D42F0EC6480C864809845F02269
:1002400075F008758200EF2FFFEE33FECD33CDCC75
:1002500033CCC58233C5829BED9AEC99E5829840F8
:100260000CF582EE9BFEED9AFDEC99FC0FD5F0D6D5
:10027000E4CEFBE4CDFAE4CCF9A88222B800C1B9FF
:100280000059BA002DEC8BF084CFCECDFCE5F0CB3D
:10029000F97818EF2FFFEE33FEED33FDEC33FCEB76
:1002A00033FB10D703994004EB99FB0FD8E5E4F931
:1002B000FA227818EF2FFFEE33FEED33FDEC33FC1E
:1002C000C933C910D7059BE99A4007EC9BFCE99A12
:1002D000F90FD8E0E4C9FAE4CCFB2275F010EF2F57
:1002E000FFEE33FEED33FDCC33CCC833C810D70757
:1002F0009BEC9AE899400AED9BFDEC9AFCE899F892
:100300000FD5F0DAE4CDFBE4CCFAE4C8F922120808
:100310007A1208C4D2AFD2AB43B00F7DFF7F041274
:1003200008A0E4F52185394B85384A85374985365B
:1003300048E47B02FAF9F8AF4BAE4AAD49AC48123B
:100340000691AC00AD01AE02AF03EC4D4E4F70070D
:10035000C2AF1208F0D2AFE47B64FAF9F8AF4BAE4B
:100360004AAD49AC48120691AC00AD01AE02AF03F4
:10037000EC4D4E4F700AC2AF1205FB12058ED2AF84
:10038000E47BE87A03F9F8AF4BAE4AAD49AC4812CA
:100390000691AC00AD01AE02AF03EC4D4E4F7007BD
:1003A000C2AF120842D2AFE47B02FAF9F8AF4BAE0B
:1003B0004AAD49AC48120691AC00AD01AE02AF03A4
:1003C000EC4D4E4F7007C2AF12001ED2AFAF39AE28
:1003D00038AD37AC36AB4BAA4AA949A848C312027C
:1003E0002A600302032580E520B005E4F50B8003B5
:1003F000750B0120B105E4F50A8003750A0120B2EE
:1004000005E4F509800375090120B305E4F50880CA
:1004100003750801E4FFEFC3940474809480501EB8
:1004200074102FF8E6FE74082FF8E66E6007741457
:100430002FF806800674142FF8E4F60F80D8E4FF36
:10044000EFC3940474809480503874142FF8E6C37A
:10045000940574809480402774102FF8E6FE740889
:100460002FF8E66E601974102FF8C374019EF674AD
:10047000102FF8E67009740C2FF876017542980F6A
:1004800080BE22787FE4F6D8FD7581510204CA024D
:10049000030EE493A3F8E493A34003F68001F2086B
:1004A000DFF48029E493A3F85407240CC8C333C4B1
:1004B000540F4420C8834004F456800146F6DFE41C
:1004C000800B01020408102040809006D5E47E01D4
:1004D0009360BCA3FF543F30E509541FFEE493A38F
:1004E00060010ECF54C025E060A840B8E493A3FAA1
:1004F000E493A3F8E493A3C8C582C8CAC583CAF02D
:10050000A3C8C582C8CAC583CADFE9DEE780BEC00A
:10051000E0C0D075D000C000C001C002C005C00757
:10052000E4FAF9F8E5392401F539EA3538F538E91E
:100530003537F537E83536F536AD2F7F071208A089
:10054000AF23A8077401088002C333D8FCFD7F06DF
:100550001208A0743A2523F8E62425F8E6FDE523E1
:100560006405700FE53564027009E54364017003AA
:1005700053057F7F071208A0E523045407F523D015
:1005800007D005D002D001D000D0D0D0E032E52491
:100590006401700B754F66F54EF54DF54C8020AF3C
:1005A00022E4FCFDFEFB7A01F9F81201DBE47BF4A6
:1005B0007A01F9F81206918F4F8E4E8D4D8C4CE4D6
:1005C0007FFFFEFDFCAB4FAA4EA94DA84CC3120203
:1005D0002A400AE4754FFFF54EF54DF54C12088D93
:1005E0007F9012071612085E7F4312071612085EEC
:1005F000AF4F12071612085E0208E412088D7F90B2
:1006000012071612085E7F4312071612085E1208C0
:100610008D7F9112071612085E120742E48F4FF584
:100620004EF54DF54CFF1208231208E4E47FF47EEA
:1006300001FDFCAB4FAA4EA94DA84C1201DBE4FB17
:100640007A01F9F81206918F2222E50C6401700CF0
:10065000F50CC374039535F535754205E50D640158
:10066000700CF50DC374039524F524754206E50E50
:100670006401700BF50EC3049532F532754207E53F
:100680000F6401700BF50FC3049543F543754208E1
:1006900022C2D5E830E70FB2D5E4C39BFBE49AFA57
:1006A000E499F9E498F8EC30E717B2D51206C712CE
:1006B000027CE4C39BFBE49AFAE499F9E498F8809D
:1006C0000312027C30D50DE4C39FFFE49EFEE49D3F
:1006D000FDE49CFC22014297083A0102030405064E
:1006E00007080D25C0F9A4B0999282F88090FFC147
:1006F0008E01350201240101320101430104080188
:10070000010101041400000000040C0000000004BA
:10071000100101010100E4FEEEC39408748094808E
:10072000501FEF30E704D2A18002C2A100000000F8
:1007300000D2A0EF25E0FF0000000000C2A00E8064
:10074000D722E4FEEEC3940874809480501BD2A09C
:100750000000000000EF25E0FF30A103430701C2C5
:10076000A000000000000E80DB22C200D2947F0CAB
:100770007E001208D9C2947F507E001208D9D2940C
:100780007F0A7E001208D9A29492001208D5A20016
:1007900022AD07E4FBEBC39408748094805012C22E
:1007A00094ED1392941208D5D294EDC313FD0B80EF
:1007B000E47F057E000208D9C297E4FEEEC39408E8
:1007C000748094805015EF30E004D2A38002C2A35D
:1007D000D297C297EFC313FF0E80E122E4FFFEEE33
:1007E000C39408748094805016EFC313FF30A305A0
:1007F000430780800353077FD297C2970E80E02281
:10080000E4FBEBC39408748094805014C294EDC34D
:1008100013FDD2943094034305801208D50B80E277
:10082000AF0522EF6004C2A18002D2A10000000047
:1008300000D2A00000000000C2A0D2A10000000071
:100840000022854644854745AF8CEFAD8AF546EDDD
:10085000F547C39545F534E5469544F53322D2A1D5
:100860000000000000D2A0000000000030A107C27C
:10087000A01208E4C322C2A0D322438E805389F081
:10088000438904E4F58AF58CC28DD28C22D2A1D2A0
:10089000A00000000000C2A10000000000C2A022D1
:1008A0008D8000EFC43354E0441FF5A00053A01F17
:1008B0000022C293C297D2934307011207B81207CE
:1008C000DCC29322438E4053890F758B20758DD1E6
:1008D000C28FD28E227F057E00EF1FAC0670011EF4
:1008E0004C70F622C2A1D2A00000000000D2A122CA
:0608F0001203E802064AB3
:00000001FF
